{
  "_format": "hh-sol-artifact-1",
  "contractName": "PurchaseHook",
  "sourceName": "contracts/PurchaseHook.sol",
  "abi": [
    {
      "inputs": [],
      "stateMutability": "nonpayable",
      "type": "constructor"
    },
    {
      "inputs": [],
      "name": "NOT_AUTHORIZED",
      "type": "error"
    },
    {
      "inputs": [],
      "name": "WRONG_PASSWORD",
      "type": "error"
    },
    {
      "inputs": [
        {
          "internalType": "string",
          "name": "message",
          "type": "string"
        },
        {
          "internalType": "bytes",
          "name": "signature",
          "type": "bytes"
        }
      ],
      "name": "getSigner",
      "outputs": [
        {
          "internalType": "address",
          "name": "recoveredAddress",
          "type": "address"
        }
      ],
      "stateMutability": "pure",
      "type": "function"
    },
    {
      "inputs": [
        {
          "internalType": "address",
          "name": "",
          "type": "address"
        },
        {
          "internalType": "address",
          "name": "recipient",
          "type": "address"
        },
        {
          "internalType": "address",
          "name": "",
          "type": "address"
        },
        {
          "internalType": "bytes",
          "name": "signature",
          "type": "bytes"
        }
      ],
      "name": "keyPurchasePrice",
      "outputs": [
        {
          "internalType": "uint256",
          "name": "minKeyPrice",
          "type": "uint256"
        }
      ],
      "stateMutability": "view",
      "type": "function"
    },
    {
      "inputs": [
        {
          "internalType": "address",
          "name": "",
          "type": "address"
        },
        {
          "internalType": "address",
          "name": "",
          "type": "address"
        },
        {
          "internalType": "address",
          "name": "",
          "type": "address"
        },
        {
          "internalType": "bytes",
          "name": "",
          "type": "bytes"
        },
        {
          "internalType": "uint256",
          "name": "",
          "type": "uint256"
        },
        {
          "internalType": "uint256",
          "name": "",
          "type": "uint256"
        }
      ],
      "name": "onKeyPurchase",
      "outputs": [],
      "stateMutability": "nonpayable",
      "type": "function"
    },
    {
      "inputs": [
        {
          "internalType": "address",
          "name": "lock",
          "type": "address"
        },
        {
          "internalType": "address",
          "name": "signer",
          "type": "address"
        }
      ],
      "name": "setSigner",
      "outputs": [],
      "stateMutability": "nonpayable",
      "type": "function"
    },
    {
      "inputs": [
        {
          "internalType": "address",
          "name": "",
          "type": "address"
        }
      ],
      "name": "signers",
      "outputs": [
        {
          "internalType": "address",
          "name": "",
          "type": "address"
        }
      ],
      "stateMutability": "view",
      "type": "function"
    },
    {
      "inputs": [
        {
          "internalType": "address",
          "name": "account",
          "type": "address"
        }
      ],
      "name": "toString",
      "outputs": [
        {
          "internalType": "string",
          "name": "",
          "type": "string"
        }
      ],
      "stateMutability": "pure",
      "type": "function"
    },
    {
      "inputs": [
        {
          "internalType": "uint256",
          "name": "value",
          "type": "uint256"
        }
      ],
      "name": "toString",
      "outputs": [
        {
          "internalType": "string",
          "name": "",
          "type": "string"
        }
      ],
      "stateMutability": "pure",
      "type": "function"
    },
    {
      "inputs": [
        {
          "internalType": "bytes",
          "name": "data",
          "type": "bytes"
        }
      ],
      "name": "toString",
      "outputs": [
        {
          "internalType": "string",
          "name": "",
          "type": "string"
        }
      ],
      "stateMutability": "pure",
      "type": "function"
    },
    {
      "inputs": [
        {
          "internalType": "bytes32",
          "name": "value",
          "type": "bytes32"
        }
      ],
      "name": "toString",
      "outputs": [
        {
          "internalType": "string",
          "name": "",
          "type": "string"
        }
      ],
      "stateMutability": "pure",
      "type": "function"
    }
  ],
  "bytecode": "0x608060405234801561001057600080fd5b50611a91806100206000396000f3fe608060405234801561001057600080fd5b50600436106100935760003560e01c806371aad10d1161006657806371aad10d14610144578063736c0d5b1461017457806398499657146101a4578063a8e547fb146101c0578063b11a19e8146101f057610093565b806317f9fad114610098578063221c1fd1146100b457806356ca623e146100e45780636900a3ae14610114575b600080fd5b6100b260048036038101906100ad9190610f08565b610220565b005b6100ce60048036038101906100c99190610f48565b610360565b6040516100db9190611522565b60405180910390f35b6100fe60048036038101906100f99190610edb565b6104c6565b60405161010b9190611480565b60405180910390f35b61012e6004803603810190610129919061119e565b6104f7565b60405161013b9190611480565b60405180910390f35b61015e600480360381019061015991906110d9565b610528565b60405161016b9190611480565b60405180910390f35b61018e60048036038101906101899190610edb565b610822565b60405161019b9190611420565b60405180910390f35b6101be60048036038101906101b99190610fd0565b610855565b005b6101da60048036038101906101d59190611122565b61085e565b6040516101e79190611420565b60405180910390f35b61020a600480360381019061020591906110ac565b6108f0565b6040516102179190611480565b60405180910390f35b8173ffffffffffffffffffffffffffffffffffffffff1663aae4b8f7336040518263ffffffff1660e01b81526004016102599190611420565b60206040518083038186803b15801561027157600080fd5b505afa158015610285573d6000803e3d6000fd5b505050506040513d601f19601f820116820180604052508101906102a9919061107f565b6102df576040517f3d83866f00000000000000000000000000000000000000000000000000000000815260040160405180910390fd5b806000808473ffffffffffffffffffffffffffffffffffffffff1673ffffffffffffffffffffffffffffffffffffffff16815260200190815260200160002060006101000a81548173ffffffffffffffffffffffffffffffffffffffff021916908373ffffffffffffffffffffffffffffffffffffffff1602179055505050565b60008060003373ffffffffffffffffffffffffffffffffffffffff1673ffffffffffffffffffffffffffffffffffffffff16815260200190815260200160002060009054906101000a900473ffffffffffffffffffffffffffffffffffffffff1673ffffffffffffffffffffffffffffffffffffffff166103ea6103e3876104c6565b858561085e565b73ffffffffffffffffffffffffffffffffffffffff16141561048b573373ffffffffffffffffffffffffffffffffffffffff166310e569736040518163ffffffff1660e01b815260040160206040518083038186803b15801561044c57600080fd5b505afa158015610460573d6000803e3d6000fd5b505050506040513d601f19601f8201168201806040525081019061048491906111cb565b90506104bd565b6040517f6116798700000000000000000000000000000000000000000000000000000000815260040160405180910390fd5b95945050505050565b60606104f0826040516020016104dc9190611392565b604051602081830303815290604052610528565b9050919050565b60606105218260405160200161050d9190611405565b604051602081830303815290604052610528565b9050919050565b606060006040518060400160405280601081526020017f303132333435363738396162636465660000000000000000000000000000000081525090506000600284516105749190611641565b600261058091906115eb565b67ffffffffffffffff8111156105995761059861187b565b5b6040519080825280601f01601f1916602001820160405280156105cb5781602001600182028036833780820191505090505b5090507f3000000000000000000000000000000000000000000000000000000000000000816000815181106106035761060261184c565b5b60200101907effffffffffffffffffffffffffffffffffffffffffffffffffffffffffffff1916908160001a9053507f7800000000000000000000000000000000000000000000000000000000000000816001815181106106675761066661184c565b5b60200101907effffffffffffffffffffffffffffffffffffffffffffffffffffffffffffff1916908160001a90535060005b8451811015610817578260048683815181106106b8576106b761184c565b5b602001015160f81c60f81b7effffffffffffffffffffffffffffffffffffffffffffffffffffffffffffff1916901c60f81c60ff16815181106106fe576106fd61184c565b5b602001015160f81c60f81b826002836107179190611641565b600261072391906115eb565b815181106107345761073361184c565b5b60200101907effffffffffffffffffffffffffffffffffffffffffffffffffffffffffffff1916908160001a90535082600f60f81b86838151811061077c5761077b61184c565b5b602001015160f81c60f81b1660f81c60ff168151811061079f5761079e61184c565b5b602001015160f81c60f81b826002836107b89190611641565b60036107c491906115eb565b815181106107d5576107d461184c565b5b60200101907effffffffffffffffffffffffffffffffffffffffffffffffffffffffffffff1916908160001a905350808061080f9061176d565b915050610699565b508092505050919050565b60006020528060005260406000206000915054906101000a900473ffffffffffffffffffffffffffffffffffffffff1681565b50505050505050565b6000808460405160200161087291906113c8565b604051602081830303815290604052805190602001209050600061089582610921565b90506108e58186868080601f016020809104026020016040519081016040528093929190818152602001838380828437600081840152601f19601f82011690508083019250505050505050610951565b925050509392505050565b606061091a8260405160200161090691906113ad565b604051602081830303815290604052610528565b9050919050565b60008160405160200161093491906113df565b604051602081830303815290604052805190602001209050919050565b60008060006109608585610978565b9150915061096d816109fb565b819250505092915050565b6000806041835114156109ba5760008060006020860151925060408601519150606086015160001a90506109ae87828585610bd0565b945094505050506109f4565b6040835114156109eb5760008060208501519150604085015190506109e0868383610cdd565b9350935050506109f4565b60006002915091505b9250929050565b60006004811115610a0f57610a0e61181d565b5b816004811115610a2257610a2161181d565b5b1415610a2d57610bcd565b60016004811115610a4157610a4061181d565b5b816004811115610a5457610a5361181d565b5b1415610a95576040517f08c379a0000000000000000000000000000000000000000000000000000000008152600401610a8c906114a2565b60405180910390fd5b60026004811115610aa957610aa861181d565b5b816004811115610abc57610abb61181d565b5b1415610afd576040517f08c379a0000000000000000000000000000000000000000000000000000000008152600401610af4906114c2565b60405180910390fd5b60036004811115610b1157610b1061181d565b5b816004811115610b2457610b2361181d565b5b1415610b65576040517f08c379a0000000000000000000000000000000000000000000000000000000008152600401610b5c906114e2565b60405180910390fd5b600480811115610b7857610b7761181d565b5b816004811115610b8b57610b8a61181d565b5b1415610bcc576040517f08c379a0000000000000000000000000000000000000000000000000000000008152600401610bc390611502565b60405180910390fd5b5b50565b6000807f7fffffffffffffffffffffffffffffff5d576e7357a4501ddfe92f46681b20a08360001c1115610c0b576000600391509150610cd4565b601b8560ff1614158015610c235750601c8560ff1614155b15610c35576000600491509150610cd4565b600060018787878760405160008152602001604052604051610c5a949392919061143b565b6020604051602081039080840390855afa158015610c7c573d6000803e3d6000fd5b505050602060405103519050600073ffffffffffffffffffffffffffffffffffffffff168173ffffffffffffffffffffffffffffffffffffffff161415610ccb57600060019250925050610cd4565b80600092509250505b94509492505050565b60008060007f7fffffffffffffffffffffffffffffffffffffffffffffffffffffffffffffff60001b841690506000601b60ff8660001c901c610d2091906115eb565b9050610d2e87828885610bd0565b935093505050935093915050565b6000610d4f610d4a84611562565b61153d565b905082815260208101848484011115610d6b57610d6a6118b9565b5b610d768482856116fa565b509392505050565b6000610d91610d8c84611593565b61153d565b905082815260208101848484011115610dad57610dac6118b9565b5b610db88482856116fa565b509392505050565b600081359050610dcf816119ff565b92915050565b600081519050610de481611a16565b92915050565b600081359050610df981611a2d565b92915050565b60008083601f840112610e1557610e146118af565b5b8235905067ffffffffffffffff811115610e3257610e316118aa565b5b602083019150836001820283011115610e4e57610e4d6118b4565b5b9250929050565b600082601f830112610e6a57610e696118af565b5b8135610e7a848260208601610d3c565b91505092915050565b600082601f830112610e9857610e976118af565b5b8135610ea8848260208601610d7e565b91505092915050565b600081359050610ec081611a44565b92915050565b600081519050610ed581611a44565b92915050565b600060208284031215610ef157610ef06118c3565b5b6000610eff84828501610dc0565b91505092915050565b60008060408385031215610f1f57610f1e6118c3565b5b6000610f2d85828601610dc0565b9250506020610f3e85828601610dc0565b9150509250929050565b600080600080600060808688031215610f6457610f636118c3565b5b6000610f7288828901610dc0565b9550506020610f8388828901610dc0565b9450506040610f9488828901610dc0565b935050606086013567ffffffffffffffff811115610fb557610fb46118be565b5b610fc188828901610dff565b92509250509295509295909350565b600080600080600080600060c0888a031215610fef57610fee6118c3565b5b6000610ffd8a828b01610dc0565b975050602061100e8a828b01610dc0565b965050604061101f8a828b01610dc0565b955050606088013567ffffffffffffffff8111156110405761103f6118be565b5b61104c8a828b01610dff565b9450945050608061105f8a828b01610eb1565b92505060a06110708a828b01610eb1565b91505092959891949750929550565b600060208284031215611095576110946118c3565b5b60006110a384828501610dd5565b91505092915050565b6000602082840312156110c2576110c16118c3565b5b60006110d084828501610dea565b91505092915050565b6000602082840312156110ef576110ee6118c3565b5b600082013567ffffffffffffffff81111561110d5761110c6118be565b5b61111984828501610e55565b91505092915050565b60008060006040848603121561113b5761113a6118c3565b5b600084013567ffffffffffffffff811115611159576111586118be565b5b61116586828701610e83565b935050602084013567ffffffffffffffff811115611186576111856118be565b5b61119286828701610dff565b92509250509250925092565b6000602082840312156111b4576111b36118c3565b5b60006111c284828501610eb1565b91505092915050565b6000602082840312156111e1576111e06118c3565b5b60006111ef84828501610ec6565b91505092915050565b6112018161169b565b82525050565b6112186112138261169b565b6117b6565b82525050565b611227816116b9565b82525050565b61123e611239826116b9565b6117c8565b82525050565b600061124f826115c4565b61125981856115cf565b9350611269818560208601611709565b611272816118c8565b840191505092915050565b6000611288826115c4565b61129281856115e0565b93506112a2818560208601611709565b80840191505092915050565b60006112bb6018836115cf565b91506112c6826118e6565b602082019050919050565b60006112de601f836115cf565b91506112e98261190f565b602082019050919050565b6000611301601c836115e0565b915061130c82611938565b601c82019050919050565b60006113246022836115cf565b915061132f82611961565b604082019050919050565b60006113476022836115cf565b9150611352826119b0565b604082019050919050565b611366816116e3565b82525050565b61137d611378826116e3565b6117e4565b82525050565b61138c816116ed565b82525050565b600061139e8284611207565b60148201915081905092915050565b60006113b9828461122d565b60208201915081905092915050565b60006113d4828461127d565b915081905092915050565b60006113ea826112f4565b91506113f6828461122d565b60208201915081905092915050565b6000611411828461136c565b60208201915081905092915050565b600060208201905061143560008301846111f8565b92915050565b6000608082019050611450600083018761121e565b61145d6020830186611383565b61146a604083018561121e565b611477606083018461121e565b95945050505050565b6000602082019050818103600083015261149a8184611244565b905092915050565b600060208201905081810360008301526114bb816112ae565b9050919050565b600060208201905081810360008301526114db816112d1565b9050919050565b600060208201905081810360008301526114fb81611317565b9050919050565b6000602082019050818103600083015261151b8161133a565b9050919050565b6000602082019050611537600083018461135d565b92915050565b6000611547611558565b9050611553828261173c565b919050565b6000604051905090565b600067ffffffffffffffff82111561157d5761157c61187b565b5b611586826118c8565b9050602081019050919050565b600067ffffffffffffffff8211156115ae576115ad61187b565b5b6115b7826118c8565b9050602081019050919050565b600081519050919050565b600082825260208201905092915050565b600081905092915050565b60006115f6826116e3565b9150611601836116e3565b9250827fffffffffffffffffffffffffffffffffffffffffffffffffffffffffffffffff03821115611636576116356117ee565b5b828201905092915050565b600061164c826116e3565b9150611657836116e3565b9250817fffffffffffffffffffffffffffffffffffffffffffffffffffffffffffffffff04831182151516156116905761168f6117ee565b5b828202905092915050565b60006116a6826116c3565b9050919050565b60008115159050919050565b6000819050919050565b600073ffffffffffffffffffffffffffffffffffffffff82169050919050565b6000819050919050565b600060ff82169050919050565b82818337600083830152505050565b60005b8381101561172757808201518184015260208101905061170c565b83811115611736576000848401525b50505050565b611745826118c8565b810181811067ffffffffffffffff821117156117645761176361187b565b5b80604052505050565b6000611778826116e3565b91507fffffffffffffffffffffffffffffffffffffffffffffffffffffffffffffffff8214156117ab576117aa6117ee565b5b600182019050919050565b60006117c1826117d2565b9050919050565b6000819050919050565b60006117dd826118d9565b9050919050565b6000819050919050565b7f4e487b7100000000000000000000000000000000000000000000000000000000600052601160045260246000fd5b7f4e487b7100000000000000000000000000000000000000000000000000000000600052602160045260246000fd5b7f4e487b7100000000000000000000000000000000000000000000000000000000600052603260045260246000fd5b7f4e487b7100000000000000000000000000000000000000000000000000000000600052604160045260246000fd5b600080fd5b600080fd5b600080fd5b600080fd5b600080fd5b600080fd5b6000601f19601f8301169050919050565b60008160601b9050919050565b7f45434453413a20696e76616c6964207369676e61747572650000000000000000600082015250565b7f45434453413a20696e76616c6964207369676e6174757265206c656e67746800600082015250565b7f19457468657265756d205369676e6564204d6573736167653a0a333200000000600082015250565b7f45434453413a20696e76616c6964207369676e6174757265202773272076616c60008201527f7565000000000000000000000000000000000000000000000000000000000000602082015250565b7f45434453413a20696e76616c6964207369676e6174757265202776272076616c60008201527f7565000000000000000000000000000000000000000000000000000000000000602082015250565b611a088161169b565b8114611a1357600080fd5b50565b611a1f816116ad565b8114611a2a57600080fd5b50565b611a36816116b9565b8114611a4157600080fd5b50565b611a4d816116e3565b8114611a5857600080fd5b5056fea2646970667358221220bc8c42f8e246512a6512a9b470fa244994ac2d0e064fb33972c0fc7bbccf395564736f6c63430008070033",
  "linkReferences": {},
  "deployedLinkReferences": {}
}